:02000000352B9E
:100006000F3083120313FC004730FD00FD0B092857
:0A001600FC0B0928000000000800A0
:0E002000213083120313FD00FD0B142808008D
:06002E00000000000800C4
:1000340083160313A61B21288312861123288312F7
:1000440086158316261B2928831206112B28831252
:1000540006158316A61A31288312861033288312B4
:1000640086148316261A3928831206103B28831215
:1000740006143E183F280616402806128616172036
:1000840086128316A6194928831286114B288312D7
:1000940086158316261951288312061153288312B4
:1000A40006158316A6185928831286105B28831216
:1000B4008614831626186128831206106328831277
:1000C40006143E1867280616682806128616172096
:0E00D40086123E1C6F280320702810200800A2
:1000E2008328803083160313A3009628C030A30010
:1000F20096289430A3009628D430A3009628803006
:10010200A3009628831603132308013A03197228C1
:100112002308023A031977282308033A03197A2895
:100122002308043A03197D2880282403F0002308B9
:10013200F0077008A30083123E1470088316A6000D
:100142001A203E1083162508A6001A203E14080025
:10015200831203133E1083162308A6001A203E14AE
:02016200080093
:0E0164008312031339088A003808820008004D
:10017200831203132230FC00F801F901FA01FB019A
:10018200FC030319EF280310FB0CFA0CF90CF80C12
:10019200F30CF20CF10CF00C031CC128FC03031944
:1001A200E1287408F80775080318750FF90776082F
:1001B2000318760FFA0777080318770FFB07C5288D
:1001C2007408F80775080318750FF90776080318FD
:0E01D200760FFA0777080318770FFB0708006F
:1001E000710DF80DF90D7408F8027508031C750FF0
:1001F000F902F00DF10D0F30FC00710DF80DF90D45
:100200007408701C0929F8027508031C750FF9029F
:100210000E29F80775080318750FF907F00DF10D91
:10022000FC0BFD2870181A297408F80775080318C4
:08023000750FF907000008003A
:100238008316031321088312BA0083162208831237
:0C024800BB00BC01BD010130BF0008007C
:10025400403083160313A6001A208316A101210837
:10026400073C031C4A292108AC3EF0000530031862
:10027400013EF10070088312B8007108B900B22081
:100284008A110A128316A300A9208316A10A312910
:100294000230A6001A2021088316A3008312200826
:0A02A4008316A400A50171200800D4
:1002AE00831203136D0884001030000203186829AE
:1002BE006D088400000AF0006D088400700880004C
:0402CE002A210800D9
:1002D200831203136D0884000008013C03187A2975
:1002E2006D0884000003F0006D088400700880002F
:0402F2002A210800B5
:1002F6008D29803083120313ED00A029C030ED0054
:10030600A0299430ED00A029D430ED00A02980303A
:10031600ED00A029831203136D08013A03197C2905
:100326006D08023A031981296D08033A03198429D5
:100336006D08043A031987298A296E03F0006D08AF
:10034600F0077008ED0070088316A6001A203E100C
:100356008316A001200883126F0784000008031982
:10036600C0298316200883126F07840000088316AD
:10037600A300A9208316A00AAD2983123E14080003
:0C038600013083160313A6001A200800A3
:10039200831203137408003A031DD8297508003A22
:1003A200031DD829FF30F0007F30F100312A83127B
:1003B2000313FD01F901F8017108700403190034F7
:1003C20071087506FA00FA1BFD09FB01F51FEE29FB
:1003D200F409F509F40A0319F50AF11FF529F009E0
:1003E200F109F00A0319F10A71087504FA00FA1BFF
:1003F2000A2AF0207B181D2AFD1F0034F009F1099A
:10040200F00A0319F10AF809F909F80A0319F90AB5
:100412000034F51F192AF11B152A7108F90070081A
:10042200F800F101F001FD29F101F001F00A0034B8
:10043200F109F009FB0AFA29F80A0319F90A740802
:100442007802031DFD2975087902031DFD29F901B2
:10045200F801F00A0319F10AF11FFD290000FF3427
:02046200080090
:10046400483083160313A6001A20EF016F08073CD7
:10047400031C4F2A6F08A43EF00005300318013E08
:10048400F1007008B8007108B900B2208A110A128C
:100494008316A300A920EF0A382A02308316A60087
:1004A4001A206D088316A30083126E088316A40015
:0804B4000130A50071200800D1
:1004BC008316031386120612061086100611861177
:1004CC00831286120612861106118610061003205E
:1004DC000320032086140614861617208612032088
:1004EC0086161720861203208616172086120320E4
:1004FC0006108616172086120320861617208612E1
:10050C00861086158616172086120320861106146F
:10051C0086161720861206108616172086120320C0
:10052C0086161720861206148616172086120320AC
:10053C0006108616172086128615061586140614C4
:0C054C0086161720861203203E140800BB
:10055800831203133F08031DB72A01308316A10035
:100568000030A2001C213A08F0003B08F1003C08CA
:10057800F2003D08F3006D30F4004E30F500C6304F
:10058800F6004130F700B9203930F5003030F60078
:10059800F701F8017008F50771080318710FF607DD
:1005A80072080318720FF70773080318730FF80718
:1005B8007708F0007808F1000030F81BFF30F300EE
:1005C800FF30F0057F30F1050030F205F3057008C3
:1005D800BA007108BB007208BC007308BD000800AF
:1005E800831203136D0884000008023A031D052BCB
:1005F8006D0884000003F0006D0884007008800016
:040608002A2108009B
:10060C00B2208A110A128000840AB80A0319B90AA6
:08061C00F003031D062B08008A
:1006240083120313F8010830FC00700DF80D7408F0
:10063400F80203181F2BF8070310F00DFC0B172BFF
:020644000800AC
:10064600831203136D0884000008013A031D342B3E
:100656006D088400000AF0006D08840070088000B0
:040666002A2108003D
:10066A00B425831603178801890183128713881317
:10067A00F0308316031387005E2201308316A6002A
:10068A001A200C308316A6001A200130A10001306E
:10069A00A000E801EB01E901EA0180306A06F000F6
:1006AA0080307002031D5B2B0A3069020318832B0A
:1006BA006908F0006A08F100F00DF10D7010F00DF4
:1006CA00F10D70104030F00702307007840080018D
:1006DA00840A80016908F0006A08F100F00DF10D42
:1006EA007010F00DF10D70107008403E840080010A
:1006FA00840A8001E90A0319EA0A522B0130831697
:10070A00A6001A200130ED000430EE002308EF00A5
:10071A007B210B30FB002630FC005D30FD00FD0B19
:10072A00942BFC0B942BFB0B942B000000000A303B
:10073A00F4006B08F00012237808F0007008003A01
:10074A00031D982C6B08143A031DE02BEB01680873
:10075A00F000F00D7010F00D70104030F00702300C
:10076A0070078400113080000030840A8000680815
:10077A00F000F00D7010F00D70104030F0077008A6
:10078A00EC00AC220230F4000030F500C9217808F0
:10079A00F0007908F100F00A0319F10A6C088400E4
:1007AA00700880007108840A8000E80A6808093A1B
:1007BA00031DE02BE801E901EA0180306A06F00036
:1007CA0080307002031DEB2B0A3069020318122CC9
:1007DA006908F0006A08F100F00DF10D7010F00DD3
:1007EA00F10D70104030F00702307007F200720805
:1007FA00840001300002F0000030031C013E840A2C
:10080A000002F10072088400700880007108840AEE
:10081A008000E90A0319EA0AE22BE901EA018030B9
:10082A006A06F00080307002031D1D2C0A3069022E
:10083A0003186F2C6908F0006A08F100F00DF10D39
:10084A007010F00DF10D70107008403E8400000821
:10085A00F100840A0008F20000307206031D372CEA
:10086A0021087106031D6B2C6908F0006A08F10063
:10087A00F00DF10D7010F00DF10D70104030F00711
:10088A000230700784000008F100840A0008F200B0
:10089A0000307206031D532C20087106031D6B2CB1
:1008AA00C3210230ED000430EE002208EF007B2164
:1008BA001530FB004B30FC00BE30FD00FD0B632CF5
:1008CA00FC0B632CFB0B632C00004A2BE90A03196F
:1008DA00EA0A142CC3212A21E901EA0180306A06B6
:1008EA00F00080307002031D7C2C0A306902031864
:1008FA00982C6908F0006A08F100F00DF10D7010EB
:10090A00F00DF10D70104030F007700884000008F7
:10091A00ED000230700784000008EE003222E90A76
:10092A000319EA0A732C871ED12C0D30FC00FB3008
:10093A00FD00FD0B9E2CFC0B9E2C00000000871E68
:10094A00D12CC3212130ED00F422E901EA018030E3
:10095A006A06F00080307002031DB52C0A30690265
:10096A000318D12C6908F0006A08F100F00DF10DA6
:10097A007010F00DF10D70104030F007700884000F
:10098A000008ED000230700784000008EE003222F1
:10099A00E90A0319EA0AAC2C071E0A2D0D30FC00DD
:1009AA00FB30FD00FD0BD72CFC0BD72C0000000000
:1009BA00071E0A2DC3212130ED002323E901EA0194
:1009CA0080306A06F00080307002031DEE2C0A3077
:1009DA00690203180A2D6908F0006A08F100F00D8F
:1009EA00F10D7010F00DF10D70104030F007700825
:1009FA0084000008ED000230700784000008EE0051
:100A0A003222E90A0319EA0AE52C071F432D0D30A1
:100A1A00FC00FB30FD00FD0B102DFC0B102D00001F
:100A2A000000071F432DC3212030ED006921E90191
:100A3A00EA0180306A06F00080307002031D272D1B
:100A4A000A3069020318432D6908F0006A08F100A8
:100A5A00F00DF10D7010F00DF10D70104030F0072F
:100A6A00700884000008ED00023070078400000856
:100A7A00EE003222E90A0319EA0A1E2D871F7C2D8D
:100A8A000D30FC00FB30FD00FD0B492DFC0B492D00
:100A9A0000000000871F7C2DC3212030ED00572164
:100AAA00E901EA0180306A06F00080307002031D15
:100ABA00602D0A30690203187C2D6908F0006A0863
:100ACA00F100F00DF10D7010F00DF10D70104030C5
:100ADA00F007700884000008ED00023070078400F7
:100AEA000008EE003222E90A0319EA0A572DEB0A36
:100AFA004E30FC00EB30FD00FD0B812DFC0B812DEF
:040B0A009C2B862D6D
:100B680020308400183083120313F0008C30B80052
:080B78000530B9000623080056
:020B18000134A6
:020B1A000134A4
:020B1C0024347F
:020B1E002E3473
:100B2000473441344D34453420344F345634453401
:040B30005234003407
:100B340047344534543420345234453441344434F5
:040B440059340034EC
:100B480005340F3413341334133413340F34053489
:100B5800003412341F341D341D341F341234003451
:04400E00F22F000786
:00000001FF
